:100000000A128A111228B934FE00030E8316031354
:10001000B1000408B2000A08B3007F08B4000A1255
:100020008A1140280A128A111528831603170A1606
:100030008A11A0230A128A11E7000A168A11A12345
:100040000A128A11E800831603130A128A11032088
:100050000A128A11B80083160317D801D901DA01F0
:10006000DB01DC01DD01DE01DF01E001E101E20194
:10007000E301E401E501E60183010A168A11782D06
:100080000B1C432844286C288312031306184928A4
:100090004A286B28831603176408013E0339E400DD
:1000A000013083160313AE00831603176408043E61
:1000B000013E831603135E280310AE0DFF3E031DA1
:1000C0005C288312031306080F39831603132E04CA
:1000D0008312031386000B108312061E70287128EA
:1000E000D7290C1F74287528F52C8316031765086B
:1000F000031D7B287C28CB28831203131E0883163C
:100100000317D80083160313A201FF30A300A03009
:10011000A4000030A5008A30A6000230A700831694
:10012000031758080A128A1582210A128A118316A7
:100130000313230883160317E3008316031322080F
:1001400083160317E200630883160313AA008316BD
:100150000317620883160313A90001300A168A11D7
:1001600050260A128A110030F000F1000A168A1196
:1001700007250A128A11063083160313AF002F30A9
:10018000AE00AE0BC128AF0BC128C62883160317DB
:10019000E501E50ACB296503031DCF28D0282029D6
:1001A000831203131E0883160317D9008316031343
:1001B000A201FF30A300A030A4000030A5008A30C7
:1001C000A6000230A7008316031759080A128A15E1
:1001D00082210A128A118316031323088316031738
:1001E000E10083160313220883160317E000610859
:1001F00083160313AA0083160317600883160313DC
:10020000A90001300A168A1150260A128A110130FB
:10021000F0000030F1000A168A1107250A128A112F
:10022000063083160313AF002F30AE00AE0B162935
:10023000AF0B16291B29023083160317E500CB29C3
:1002400002306506031D252926297629831203130A
:100250001E0883160317DA0083160313A201FF306A
:10026000A300A030A4000030A5008A30A600023010
:10027000A700831603175A080A128A1582210A1248
:100280008A1183160313230883160317DF008316CE
:100290000313220883160317DE005F088316031377
:1002A000AA00831603175E0883160313A900013002
:1002B0000A168A1150260A128A110230F000003004
:1002C000F1000A168A1107250A128A1106308316D0
:1002D0000313AF002F30AE00AE0B6C29AF0B6C29AF
:1002E0007129033083160317E500CB290330650617
:1002F000031D7B297C29CB29831203131E08831637
:100300000317DB0083160313A201FF30A300A03004
:10031000A4000030A5008A30A6000230A700831692
:1003200003175B080A128A1582210A128A118316A2
:100330000313230883160317DD0083160313220813
:1003400083160317DC005D0883160313AA008316C7
:1003500003175C0883160313A90001300A168A11DB
:1003600050260A128A110330F0000030F1000A16FC
:100370008A1107250A128A11063083160313AF006B
:100380002F30AE00AE0BC229AF0BC229C72983168E
:100390000317E501CB29831203130C1383160317EC
:1003A000E801E80A83160317E701E70AF52C861E21
:1003B000DA29DB294C2B831603176803031DE12977
:1003C000E229F729CA30F0008030F1000A168A11BC
:1003D00053240A128A110130F0008030F1000A160D
:1003E0008A1153240A128A1183160317E8010B1C81
:1003F000FA29FB29F52C831203138618002A012AF7
:10040000482A7F30F0008030F1000A168A11532408
:100410000A128A1183120313881108158316031711
:100420005808F00000300A168A11EF230A128A11C8
:10043000831603175908F00001300A168A11EF23BA
:100440000A128A11831603175A08F00002300A169E
:100450008A11EF230A128A11831603175B08F00032
:1004600003300A168A11EF230A128A11831203132A
:1004700088150811A730F0008030F1000A168A11A3
:1004800053240A128A1183160317E801E80A0B1095
:100490008312031306194D2A4E2AF52CB930F000A9
:1004A0008030F1000A168A1153240A128A11831629
:1004B0000313A201FF30A300A030A4000030A50068
:1004C0008A30A6000230A70000300A128A15F020F8
:1004D0000A128A110A128A1582210A128A118316B7
:1004E00003132308AA002208A90001300A168A1162
:1004F00050260A128A110030F000F1000A168A1103
:1005000007250A128A11023083160313B000C73080
:10051000AF008730AE00AE0B8B2AAF0B8B2AB00B2F
:100520008B2A922A83160313A201FF30A300A03066
:10053000A4000030A5008A30A6000230A7000130D8
:100540000A128A15F0200A128A110A128A158221CB
:100550000A128A11831603132308AA002208A9008D
:1005600001300A168A1150260A128A110130F00051
:100570000030F1000A168A1107250A128A1102308A
:1005800083160313B000C730AF008730AE00AE0B48
:10059000C72AAF0BC72AB00BC72ACE2A831603136C
:1005A000A201FF30A300A030A4000030A5008A30D3
:1005B000A6000230A70002300A128A15F0200A12A3
:1005C0008A110A128A1582210A128A1183160313CC
:1005D0002308AA002208A90001300A168A11502611
:1005E0000A128A110230F0000030F1000A168A1156
:1005F00007250A128A11023083160313B000C73090
:10060000AF008730AE00AE0B032BAF0B032BB00B4C
:10061000032B0A2B83160313A201FF30A300A03083
:10062000A4000030A5008A30A6000230A7000330E5
:100630000A128A15F0200A128A110A128A158221DA
:100640000A128A11831603132308AA002208A9009C
:1006500001300A168A1150260A128A110330F0005E
:100660000030F1000A168A1107250A128A11023099
:1006700083160313B000C730AF008730AE00AE0B57
:100680003F2BAF0B3F2BB00B3F2B462B8316031793
:10069000E801E80A0B10F52C061F4F2B502BF52C08
:1006A000831603176703031D562B572B632B4B3001
:1006B000F0008030F1000A168A1153240A128A11C0
:1006C00083160317E7010130F0000030F100E63037
:1006D0000A168A11D1240A128A116130831603176F
:1006E0006606031D742B752BD02C9430F0008030DF
:1006F000F1000A168A1153240A128A11831603176D
:10070000D601D7010330F0000030F10090300A1616
:100710008A11D1240A128A1190300A168A11BC2338
:100720000A128A1183160317560883160313AE00A4
:100730002E07CE3E84008312031320088317800007
:10074000840A2108800083160317560883160313B2
:10075000AE002E07CE3E8400000883120313A400CF
:10076000840A0008A5000A30A6000030A700C230A5
:100770000A168A110A240A128A11C230F0000130C6
:10078000F1000A168A1153240A128A11A530F000CA
:100790008030F1000A168A1153240A128A1101309E
:1007A00083160317D6070318D70A0030D707570850
:1007B000803AFF0080307F02031DE02B0430560298
:1007C000031CE32BE42B822B83160313A201B4300A
:1007D000A300A030A4000030A5008A30A60002309B
:1007E000A700831603174E080A128A1582210A12DF
:1007F0008A11831603132308AA002208A9000130D6
:100800000A168A1150260A128A110030F000F100EF
:100810000A168A1107250A128A1103308316031358
:10082000B0008A30AF005530AE00AE0B152CAF0BC8
:10083000152CB00B152C83160313A201B430A300A2
:10084000A030A4000030A5008A30A6000230A70026
:100850008316031750080A128A1582210A128A1178
:10086000831603132308AA002208A90001300A16E0
:100870008A1150260A128A110130F0000030F1006E
:100880000A168A1107250A128A11033083160313E8
:10089000B0008A30AF005530AE00AE0B4D2CAF0B20
:1008A0004D2CB00B4D2C83160313A201B430A300C2
:1008B000A030A4000030A5008A30A6000230A700B6
:1008C0008316031752080A128A1582210A128A1106
:1008D000831603132308AA002208A90001300A1670
:1008E0008A1150260A128A110230F0000030F100FD
:1008F0000A168A1107250A128A1103308316031378
:10090000B0008A30AF005530AE00AE0B852CAF0B77
:10091000852CB00B852C83160313A201B430A300E1
:10092000A030A4000030A5008A30A6000230A70045
:100930008316031754080A128A1582210A128A1193
:10094000831603132308AA002208A90001300A16FF
:100950008A1150260A128A110330F0000030F1008B
:100960000A168A1107250A128A1103308316031307
:10097000B0008A30AF005530AE00AE0BBD2CAF0BCF
:10098000BD2CB00BBD2CD930F0008030F1000A1620
:100990008A1153240A128A11831203138C12D2294A
:1009A00062306606031DD52CD62CF52C6408013E5A
:1009B0000339E400013083160313AE0083160317D6
:1009C0006408043E013E83160313E82C0310AE0DA9
:1009D000FF3E031DE62C8312031306080F3983160E
:1009E00003132E04831203138600831603133408A3
:1009F000FF0033088A0032088400310E8300FE0EA7
:100A00007E0E09008312031357088039E40057084B
:100A1000DC005C07E600D61F0E2D0F2D102D66148E
:100A200066080319142D152D252D660A031D192D91
:100A30001A2D222D0030D7000030D6000030D5000E
:100A40000030D400D617D7012D2D0030D70000304C
:100A5000D6000030D5000030D4005B088039E500B6
:100A6000650864060319352D362D372D64175B088C
:100A7000DC005C07E500DA1F3E2D3F2D402D65149C
:100A800065080319442D452D552D650A031D492D73
:100A90004A2D522D0030DB000030DA000030D90042
:100AA0000030D800DA17DB015D2D0030DB000030AC
:100AB000DA000030D9000030D8006608650203185B
:100AC000622D632D892D641F662D672D6B2D80305F
:100AD000DC005C08E4066608E7006508E6006708D5
:100AE000E5005408E7005808D4006708D800550806
:100AF000E7005908D5006708D9005608E7005A08EA
:100B0000D6006708DA005708E7005B08D7006708D7
:100B1000DB00E7016508DC00DD015D08DF00660839
:100B20005C02DE00031CDF035F08803AFF008030B8
:100B30007F02031D9D2D1A305E02031CA02DA12DE6
:100B4000D82D831203135708560455045404031D6B
:100B5000AA2DAC2D0130AD2D0030E7000030D700BC
:100B60000030D6000030D5000030D4006508E60023
:100B7000E02D671CBC2DBD2DC42D6708DC000310C3
:100B80005C0C0138E700C62D0310E70C541CC92D7E
:100B9000CA2DCB2DE7170130DC00570DD70CD60C32
:100BA000D50CD40CDC0BCD2D0130DC005C08E60745
:100BB0008312031365086602031CDF2DE02DB92D97
:100BC000641BE32DE42D2D2E6608031DE82DE92D71
:100BD000F22D0030D7000030D6000030D5000030B4
:100BE000D400592F5808D407590803110318013E9F
:100BF0000319FB2DD5075A0803110318013E0319E9
:100C0000022ED6075B0803110318013E0319092EB3
:100C1000D707571C0C2E0D2EE12E671C102E112EFF
:100C2000182E6708DC0003105C0C0138E7001A2E50
:100C30000310E70C541C1D2E1E2E1F2EE71701302B
:100C4000DC00570DD70CD60CD50CD40CDC0B212EA8
:100C50000130DC005C08E607E12E5708803AFF000F
:100C60005B08803A7F02031D3F2E5A085602031D7F
:100C70003F2E59085502031D3F2E580854020318F1
:100C8000422E432E9B2EFF30DC00FF30DD00FF3074
:100C9000DE00FF30DF005808E0005908E1005A0884
:100CA000E2005B08E3005408E0025508031C550FFE
:100CB0005A2E5B2EE1025608031C560F602E612E41
:100CC000E2025708031C570F662E672EE3026008E6
:100CD000DC0761080318610F6E2E6F2EDD076208B6
:100CE0000318620F742E752EDE0763080318630A5B
:100CF000DF075F08D7005E08D6005D08D5005C08F6
:100D0000D4008030DC005C08E406E709E70A6708E5
:100D1000031D8B2E8C2EA92E0130D4070030031812
:100D20000130D507003003180130D6070030031812
:100D30000130D707A92E5808D4025908031C590FAF
:100D4000D5025A08031C5A0FD6025B08031C5B0F1E
:100D5000D7025708560455045404031DB02EB12E73
:100D6000DD2E6708031DB52EB62EDD2E0030D70010
:100D70000030D6000030D5000030D400592F0130AB
:100D8000DC000310D40DD50DD60DD70DDC0BC12E14
:100D9000E71FCB2ECC2ECD2E5414671CD02ED12E77
:100DA000D42E0314E70DD62E0310E70D66080319A1
:100DB000DA2EDB2EDD2E0130E602D61FE02EE12EEC
:100DC000BF2EE501E71FE52EE62EF42E67087F39DA
:100DD0000319EB2EEC2EEF2EE501E50AF42E541C40
:100DE000F22EF32EF42EEC2E65080319F82EF92EB0
:100DF0002D2F0130D407003003180130D507003003
:100E000003180130D607003003180130D707571CEC
:100E10000A2F0B2F2D2F5408DC005508DD00560833
:100E2000DE005708DF000130E0005F0DDF0CDE0C54
:100E3000DD0CDC0CE00B152F5F08D7005E08D60038
:100E40005D08D5005C08D400660A0319282F292FF5
:100E50002D2F0130DC005C08E607660A0319312FEC
:100E6000322F372F6608031D362F372F452F0030BE
:100E7000D7000030D6000030D5000030D40066081E
:100E8000031D432F442F452FE401661C482F492F93
:100E90004B2FD6174F2F7F30DC005C08D605660835
:100EA000DC0003105C0CD700E41F572F582F592F7C
:100EB000D71708000310831203136A0D6B0D8316F6
:100EC0000313A1002108031D662F672F722F003026
:100ED00083120313EB000030EA000030E900003019
:100EE000E800E72F831203136808EC006908ED009F
:100EF0006A08EE006B08EF001F300310EF0CEE0CD9
:100F0000ED0CEC0CFF3E031D7D2F6C0883160313C4
:100F1000A00083120313EA17FF30E805FF30E9054C
:100F2000FF30EA050030EB05963083160313A1026B
:100F3000A11F9B2F9C2FBA2F2108803A973E0318A0
:100F4000A22FA32FA42F672F0130031083120313A6
:100F5000EB0CEA0CE90CE80CFF3E031DA52F013059
:100F6000EC006C0883160313A107031DB82FB92FDB
:100F7000A42FD52F20302102031CBF2FC02FD02F2C
:100F8000672F013083120313EC000310E80DE90D05
:100F9000EA0DEB0DEC0BC52F013083160313A102F4
:100FA0002108031DD42FD52FC12F20080319D92FB5
:100FB000DA2FE72F83120313E809E909EA09EB099D
:100FC000E80A0319E90A0319EA0A0319EB0A0800F7
:100FD000831603139A01193099008312031398178B
:100FE000831603139816831203131816831603131C
:100FF00018121815981518138312031318130800E4
:10100000FF1B0A2883137F1883170008840A03191B
:10101000FF0A080008308A000408840A82070034A6
:10102000503472346534733469346F346E346534DB
:10103000203442346F3474346F346E34203432349C
:101040002034703461347234613420346734753440
:1010500061347234643461347234203470346F34E7
:1010600073346934633469346F346E3420347934C2
:10107000203462346F3474346F346E34203433343B
:101080002034703461347234613420346C346C3404
:1010900061346D34613472342034613420347034FE
:1010A0006F3473346934633469346F346E3420348C
:1010B0000A3400344D3465346E347534203455347C
:1010C00041345234543420340A3461342E342034C0
:1010D0005234653463346934623469347234203490
:1010E00063346F346D3461346E3464346F3473340C
:1010F0002C34203462342E342034533461346C3434
:101100006934723420346D346F3464346F34203475
:1011100055346134723474340A34003445347334D1
:101120006334723469346234693465346E346434DF
:101130006F34203445344534503452344F344D34B8
:1011400020340A34003449346E34673472346534E0
:1011500073346534203441346E34673475346C3400
:101160006F3473343A3420340A34003444346134F4
:1011700074346F34733420344734753461347234CA
:101180006434613464346F34733420340A3400348A
:101190006C346534793465346E3464346F3420349F
:1011A00045344534503452344F344D3420340A34AD
:1011B000003420344D3465346E3475342034453475
:1011C0004534503452344F344D3420340A340034D2
:0E11D0004C346934733474346F340A34003490
:1011E000F000831603170C18F628F728F1288C183E
:1011F000FA28FB28F1288C137008831203178D003E
:10120000831603170C14831203170C0808008312AB
:1012100003171008013983160313B500B50DB50D7A
:10122000831203131F08831603133506FB39350693
:10123000831203139F0083120317110883160313ED
:10124000B60083120317100883160313B500360D7A
:10125000B60CB50C35080139B700B70DB70DB70D91
:10126000831203131F08831603133706F739370653
:10127000831203139F0083120317110883160313AD
:10128000B60083120317100883160313B500360D3A
:10129000B60CB50C360DB60CB50C35080139B700D7
:1012A000B70E831203131F08831603133706EF3993
:1012B0003706831203139F00831203171108831646
:1012C0000313B60083120317100883160313B50027
:1012D000360DB60CB50C360DB60CB50C360DB60C7D
:1012E000B50C35080139B700B70EB70D83120313DB
:1012F0001F08831603133706DF39370683120313DB
:101300009F00080083160313A8002408F000250896
:10131000F100F201F30100300A128A1530220A129C
:101320008A15730883120313DB007208DA00710850
:10133000D9007008D8008316031324082602F00091
:101340002508031C250A2702F100F201F3010030F1
:101350000A128A1530220A128A157308831203139F
:10136000A7007208A6007108A5007008A4008316E3
:10137000031322082302F000F101031CF103F20120
:10138000F11BF2037208F30001300A128A153022B1
:101390000A128A15730883120313A3007208A200AD
:1013A0007108A1007008A0000A128A15E8220A122A
:1013B0008A15831203132308C1002208C0002108E4
:1013C000BF002008BE008316031322082802F00085
:1013D000F101031CF103F201F11BF2037208F300A7
:1013E00001300A128A1530220A128A1573088312F4
:1013F0000313BD007208BC007108BB007008BA007E
:101400000A128A15BB240A128A15831203133D0897
:10141000D7003C08D6003B08D5003A08D4000A1291
:101420008A1102250A128A15831203135708EB004A
:101430005608EA005508E9005408E8000A128A1123
:101440005A270A128A158312031369088316031395
:10145000A30083120313680883160313A200080075
:10146000F80078080319352A362A4A2AF31F392A40
:101470003A2A4A2A7009FA007109FB007209FC0035
:101480007309FD00FA0A0319FB0A0319FC0A031980
:10149000FD0A522A7308FD007208FC007108FB0067
:1014A0007008FA007308720471047004031D592A4D
:1014B0005A2A632A0030F3000030F2000030F100B5
:1014C0000030F000E72A9630F900732A0130F4006A
:1014D0007408F90701300310FD0CFC0CFB0CFA0C2E
:1014E000FF3E031D6B2AFE307D05031D782A792AF5
:1014F000662A952A0130F4007408F9070130FA07CA
:10150000003003180130FB07003003180130FC07DE
:10151000003003180130FD0701300310FD0CFC0CF6
:10152000FB0CFA0CFF3E031D8D2AFF307D05031DC9
:101530009A2A9B2A7A2AA72A0130F9020130F4005C
:101540000310FA0DFB0DFC0DFD0DF40BA02AFC1B86
:10155000AA2AAB2AB12A023079020318B02AB12A8A
:101560009C2A7918B42AB52ABD2AFF30FA05FF3023
:10157000FB057F30FC05FF30FD050310F90C7908F1
:10158000F400F501F601F70118300310F40DF50D24
:10159000F60DF70DFF3E031DC52A7408FA04750801
:1015A000FB047608FC047708FD0478080319D92A9F
:1015B000DA2ADF2AF31FDD2ADE2ADF2AFD177D085B
:1015C000F3007C08F2007B08F1007A08F0000800C4
:1015D0008312031327088039B1002708A8002807C1
:1015E000B800A61FF42AF52AF62A38143808031979
:1015F000FA2AFB2A0B2B380A031DFF2A002B082B83
:101600000030A7000030A6000030A5000030A40084
:10161000A617A701132B0030A7000030A60000304A
:10162000A5000030A40023088039A8002808B106CE
:101630002308A8002807B900A21F1F2B202B212B4D
:10164000391439080319252B262B362B390A031D8B
:101650002A2B2B2B332B0030A3000030A2000030AC
:10166000A1000030A000A217A3013E2B0030A30070
:101670000030A2000030A1000030A00023082204A6
:1016800021042004031D452B462B5F2B0030A700AF
:101690000030A6000030A5000030A4008030A60471
:1016A0007F30A7043108A8002808A7042708A30052
:1016B0002608A2002508A1002408A000BA2C38089A
:1016C000031D632B642B6D2B0030A3000030A200A0
:1016D0000030A1000030A000BA2C3808A800A901F1
:1016E0002908AB0039082802AA00031CAB032A080A
:1016F0007F3EB2002B080318013E003EB3002708CE
:10170000B0002608AF002508AE002408AD00003068
:10171000A7000030A6000030A5000030A400003073
:10172000B7000030B6000030B5000030B400B90199
:10173000E32B390803199D2B9E2BBE2B0130A800EB
:101740000310AD0DAE0DAF0DB00DA80BA02B0130E9
:10175000A8000310A40DA50DA60DA70DA80BA92B7D
:10176000B71FB32BB42BB52B24140130A8000310E2
:10177000B40DB50DB60DB70DA80BB72B230830026D
:10178000031DCC2B22082F02031DCC2B21082E0277
:10179000031DCC2B20082D02031CCF2BD02BDF2BBD
:1017A00037172008AD022108031C210FAE022208C2
:1017B000031C220FAF022308031C230FB0020130C9
:1017C000A8002808B9071A303902031CE82BE92BB6
:1017D000992B30082F042E042D040319F02BF12B24
:1017E000102C3414102C0130A8000310A40DA50DEA
:1017F000A60DA70DA80BF52BB71FFF2B002C012C56
:1018000024140130A8000310B40DB50DB60DB70DAA
:10181000A80B032CFF30B2070318B30AFF30B3073D
:10182000A61F132C142CF32BB901B71F182C192C3D
:10183000352CFF303405A800FF303505A900FF30F6
:101840003605AA007F303705AB002B082A0429048F
:10185000280403192C2C2D2C302CB901B90A352C55
:10186000241C332C342C352C2D2C39080319392CFD
:101870003A2C6B2C0130A407003003180130A50767
:10188000003003180130A607003003180130A70705
:10189000271C4B2C4C2C6B2C2408A8002508A900D5
:1018A0002608AA002708AB000130AC002B0DAB0CBA
:1018B000AA0CA90CA80CAC0B562C2B08A7002A08C4
:1018C000A6002908A5002808A4000130B2070318C3
:1018D000B30A0030B3073308803AFF0080307F023C
:1018E000031D742CFF303202031C772C782C862CBD
:1018F000FF3083120313B2000030B3000030A700A2
:101900000030A6000030A5000030A40083120313AD
:101910003308803AFF0080307F02031D912C013094
:1019200032020318942C952CA22C83120313B201BB
:10193000B3010030A7000030A6000030A500003041
:10194000A400B101831203133208B800381CA92C7B
:10195000AA2CAC2CA617B02C7F30A8002808A6050E
:101960003808A8000310280CA7003108A800280890
:10197000A704562B0800831203133D088039C700C3
:101980003D08C2004207CD00BC1FC72CC82CC92C83
:101990004D144D080319CD2CCE2CDD2C4D0A031D02
:1019A000D22CD32CDB2C0030BD000030BC0000302A
:1019B000BB000030BA00BC17E52C0030BD00003081
:1019C000BC000030BB000030BA0041088039C200C2
:1019D0004208C7064108C2004207CC00C01FF12CD4
:1019E000F22CF32C4C144C080319F72CF82C072D6F
:1019F0004C0A031DFC2CFD2C052D0030C1000030CD
:101A0000C0000030BF000030BE00C0170F2D0030F6
:101A1000C1000030C0000030BF000030BE004C08E4
:101A20000319132D142D192D4D08031D182D192DD3
:101A3000222D0030BD000030BC000030BB00003063
:101A4000BA00FF2F3A08F00040080A168A117924DC
:101A50000A128A15710883120313D3007008D2008A
:101A60005208C200C301C401C5014508CB004408A7
:101A7000CA004308C9004208C8005308C200C30195
:101A8000C401C5014508D1004408D0004308CF0077
:101A90004208CE003B08F0003F080A168A1179245C
:101AA0000A128A15710883120313D3007008D2003A
:101AB0005208C200C301C401C5014208C807430857
:101AC00003110318013E0319662DC90744080311C9
:101AD0000318013E03196D2DCA07450803110318A9
:101AE000013E0319742DCB075308C200C301C40182
:101AF000C5014208CE07430803110318013E03192C
:101B0000822DCF07440803110318013E0319892DC4
:101B1000D007450803110318013E0319902DD10782
:101B20003C08F0003E080A168A1179240A128A1528
:101B3000710883120313D3007008D2005208C20048
:101B4000C301C401C5014208C807430803110318B3
:101B5000013E0319AC2DC907440803110318013EC7
:101B60000319B32DCA07450803110318013E0319D1
:101B7000BA2DCB075308C200C301C401C5014208F6
:101B8000CE07430803110318013E0319C82DCF07E0
:101B9000440803110318013E0319CF2DD00745084F
:101BA00003110318013E0319D62DD1070830C200D6
:101BB0000310C80DC90DCA0DCB0DC20BD82D3B08A3
:101BC000F0003E080A168A1179240A128A15710853
:101BD00083120313D3007008D2005208C2005308C6
:101BE000C300C401C5014208C80743080311031814
:101BF000013E0319FC2DC907440803110318013ED7
:101C00000319032ECA07450803110318013E0319DF
:101C10000A2ECB073A08F0003F080A168A117924E9
:101C20000A128A15710883120313D3007008D200B8
:101C30005208C2005308C300C401C5014208C807C6
:101C4000430803110318013E0319272EC90744084E
:101C500003110318013E03192E2ECA07450803116C
:101C60000318013E0319352ECB070830C2000310BC
:101C7000C80DC90DCA0DCB0DC20B372E3A08F000A6
:101C80003E080A168A1179240A128A1571088312ED
:101C90000313D3007008D2005208C2005308C300D7
:101CA000C401C5014208C807430803110318013ED7
:101CB00003195B2EC907440803110318013E0319D9
:101CC000622ECA07450803110318013E0319692E45
:101CD000CB073B08F00040080A168A1179240A1243
:101CE0008A15710883120313D3007008D2005208BA
:101CF000C2005308C300C401C5014208CE0743080F
:101D000003110318013E0319862ECF07440803115F
:101D10000318013E03198D2ED0074508031103183F
:101D2000013E0319942ED1073C08F0003F080A1623
:101D30008A1179240A128A15710883120313D300B9
:101D40007008D2005208C2005308C300C401C50184
:101D50004208CE07430803110318013E0319B12EB0
:101D6000CF07440803110318013E0319B82ED0070A
:101D7000450803110318013E0319BF2ED1073C0883
:101D8000F00040080A168A1179240A128A1571088F
:101D900083120313D3007008D2005208C200530804
:101DA000C300C401C50108300310C20DC30DC40D2A
:101DB000C50DFF3E031DD42E4208CE074308031174
:101DC0000318013E0319E52ECF0744080311031839
:101DD000013E0319EC2ED007450803110318013EFC
:101DE0000319F32ED1074808C2004908C3004A0866
:101DF000C4004B08C50018300310C50CC40CC30C3C
:101E0000C20CFF3E031DFC2E4208CE0743080311FF
:101E10000318013E03190D2FCF07440803110318BF
:101E2000013E0319142FD007450803110318013E82
:101E300003191B2FD1070830C2000310C80DC90DAC
:101E4000CA0DCB0DC20B1D2F4D084C07C200C3019C
:101E5000C30D4208823ED20043080318013EFF3EF4
:101E6000D3004F2F0130C2000310CE0DCF0DD00D87
:101E7000D10DC20B342FCB1F3E2F3F2F402F4E14BE
:101E80000130C2000310C80DC90DCA0DCB0DC20B25
:101E9000422FFF30D2070318D30AFF30D307D01FD9
:101EA000522F532F322FCC01CB1F572F582F742F67
:101EB000FF304805C200FF304905C300FF304A0526
:101EC000C4007F304B05C500450844044304420468
:101ED00003196B2F6C2F6F2FCC01CC0A742F4E1C63
:101EE000722F732F742F6C2F4C080319782F792FB2
:101EF000AA2F0130CE07003003180130CF07003081
:101F000003180130D007003003180130D107511CED
:101F10008A2F8B2FAA2F4E08C2004F08C3005008EB
:101F2000C4005108C5000130C600450DC50CC40CE5
:101F3000C30CC20CC60B952F4508D1004408D00035
:101F40004308CF004208CE000130D2070318D30A5D
:101F50000030D3075308803AFF0080307F02031D12
:101F6000B32FFF305202031CB62FB72FC22F7F3082
:101F700083120313D1008030D0000030CF00003036
:101F8000CE00F32F831203135308803AFF008030F2
:101F90007F02031DCD2F013052020318D02FD12F05
:101FA000DD2F003083120313D1000030D000003049
:101FB000CF000030CE00C701F32F83120313520865
:101FC000CD00FF30CE05FF30CF057F30D00500308B
:101FD000D1054D1CEC2FED2FEE2FD0174D08C20070
:101FE0000310420CD1004708C2004208D104510836
:101FF000BD005008BC004F08BB004E08BA000800E6
:1027400001340134831603138C120800831603131B
:102750000C120800831603131D16080083120313BE
:102760000C13831603130C1708000B118B120B109C
:102770008B150B178B17080083120313A200220876
:102780000A168A1185270A168A11770883120313FD
:10279000A1007608A000080083160313B50081305D
:1027A000831203139F0083160313350C031C9F131E
:1027B00003189F179F121F120800F100F0013A3012
:1027C00071020318E42BE52BED2B30307102031C52
:1027D000EA2BEB2BED2BF001F00A700C0800F10056
:1027E000831603178C18F52BF62BF02B8C130C1576
:1027F0007108831203178D0070088C008B135530FD
:10280000831603178D00AA308D008C148B170C11C2
:102810000B10080083120313A800A51F102C112C05
:102820001F2C280884002D30831780000130FD0004
:102830007D08A807A409A509A40A0319A50A250863
:10284000F9002408F8002708FB002608FA002808E9
:102850000A168A1117270A168A110800F401F501D1
:10286000701C332C342C3A2C7208F4070318F50A28
:102870007308F50701300310F20DF30DFF3E031D41
:102880003B2C01300310F10CF00CFF3E031D422CD9
:1028900070087104031D4D2C4E2C302C7508F1006E
:1028A0007408F0000800682C0C1E572C582C542C6F
:1028B0007108FF00700884000A128A1500200A16A9
:1028C0008A1199000130F0070318F10A0030F1076E
:1028D000710883120313FF00700884000A128A151E
:1028E00000200A168A11003A031D772C782C542CEC
:1028F0000800F800F401F5017008F200F301720815
:10290000F6007308F700781C862C872C8D2C76082F
:10291000F4070318F50A7708F50701300310F60DE0
:10292000F70DFF3E031D8E2C0310F80C7808031DD5
:102930009A2C9B2C832C7508F1007408F000080079
:102940000F3083160317880089010F308316031395
:102950008500831203138501073083160313860055
:10296000103083120313860007308316031396007A
:10297000870183120313870183160313880108302C
:102980008312031388008316031389018312031330
:1029900089018316031381130F140F128F160F175B
:1029A0000800F300F401F501F52C831203138C1ECB
:1029B000DA2CDB2CD52C74087307F2007208840023
:1029C0001A088317800074087307F20072088400E5
:1029D0000D300006031DED2CEE2CEF2CFF2C0130EA
:1029E000F4070318F50A0030F50771087502031D96
:1029F000FB2C70087402031CFE2CFF2CD52C7408D1
:102A00007307F200720884008317800108007008C1
:102A10007104031D0C2D0D2D142D831603131D148D
:102A20009D101D119D113D2D70037104031D192D65
:102A30001A2D212D831603131D109D141D119D1198
:102A40003D2D023070067104031D272D282D2F2DDA
:102A5000831603131D109D101D159D113D2D033070
:102A600070067104031D352D362D3D2D831603137D
:102A70001D109D101D119D153D2D0800700871043D
:102A80000319432D442D732DF501F50A522D013004
:102A90000310F00DF10DFF3E031D482D0130F40031
:102AA0007408F507F11F552D562D472D7108730237
:102AB000031D5C2D70087202031C5F2D602D662DB6
:102AC0007008F2027108031CF303F30201300310D3
:102AD000F10CF00CFF3E031D672D0130F502031DC4
:102AE000722D732D562D7308F1007208F000080046
:102AF0000A168A11A0240A168A110A168A11B52309
:102B00000A168A11043083120317900000309100D6
:102B100001300A168A11B1260A168A110A168A117C
:102B2000AA230A168A1100300A168A11CC230A1623
:102B30008A110A168A11AE230A168A110A128A11FC
:102B4000E8270A168A110A168A11A6230A168A117C
:102B50000A168A11A2230A168A110A168A11FA2560
:102B60000A168A11AD2D0A128A111228F501F601F2
:102B7000700871040319BD2DBE2DF52DF701F70A5C
:102B8000CC2D01300310F00DF10DFF3E031DC22DC1
:102B90000130F4007408F707F11FCF2DD02DC12D9F
:102BA00001300310F50DF60DFF3E031DD12D710808
:102BB0007302031DDD2D70087202031CE02DE12D50
:102BC000E82D7008F2027108031CF303F302751478
:102BD00001300310F10CF00CFF3E031DE92D013014
:102BE000F702031DF42DF52DD02D7608F1007508A0
:102BF000F0000800831203139F1CFF2D002E012EEE
:102C00004F2E831603176508031D072E082E132E5B
:102C1000003083120317900091000A128A150721D1
:102C20000A168A11482E6503031D172E182E242E0E
:102C30000130831203179000003091000A128A15A8
:102C400007210A168A11482E02306506031D292E17
:102C50002A2E362E02308312031790000030910086
:102C60000A128A1507210A168A11482E03306506B2
:102C7000031D3B2E3C2E482E033083120317900079
:102C8000003091000A128A1507210A168A11482E6F
:102C9000831203139F184D2E4E2E482E9F140800AA
:102CA00083160313AD002D03031D572E582E772EC8
:102CB0002A08AC002908AB000310AC0CAB0C0310C5
:102CC000AC0CAB0C2B088312031395008316031373
:102CD00029080339AB00AB0E8312031317088316C0
:102CE00003132B06CF392B068312031397000230F0
:102CF000831603132D06031D7E2E7F2EB02E2A0869
:102D0000AC002908AB000310AC0CAB0C0310AC0CEE
:102D1000AB0C2B08831203139B00831603132908A3
:102D20000139AB00AB0E831203131D088316031386
:102D30002B06EF392B06831203139D008316031312
:102D400029080239AB00AB0EAB0D831203131D082B
:102D5000831603132B06DF392B06831203139D0002
:102D6000080083160313B5008312031397019D0116
:102D7000CD2E7D30831603139200DF2EBC308316D8
:102D800003139200DF2EFA30831603139200DF2E16
:102D90003F30831603139200DF2E831203171108AE
:102DA000003A0319D42EC82E1008023A0319B92E7E
:102DB000013A0319BE2E073A0319C32EC82E350354
:102DC000031DE32EE42EED2E3F30831203139705EF
:102DD0001708F0390C3897000C2F02303506031D08
:102DE000F22EF32EFA2E831203131D08F0390C383D
:102DF0009D000C2F03303506031DFF2E002F0C2FD6
:102E00003F308312031397051708F0390C389700E9
:102E10001D08F0390C389D0083128C100330920489
:102E200012158C1C142F152F112F8C1008008312D3
:102E30000313A3007908A1007808A0007B08F10023
:102E40007A08F0002108F3002008F2000A168A111F
:102E5000B6250A168A11710883120313A10070089F
:102E6000A0000130FC007C08A30720082104031DFA
:102E70003A2F3B2F1E2F2308840083178001013037
:102E8000A3027B08F1007A08F0007908F3007808C3
:102E9000F2000A168A113E250A168A11700883125A
:102EA0000313A2007B08F1007A08F0007908F30010
:102EB0007808F2000A168A11B6250A168A117108D6
:102EC000F9007008F8000A30831203132202031C71
:102ED0006A2F6B2F6F2F0730FC007C08A207303061
:102EE000FC007C08A20723088400220883178000C6
:102EF0000130A30278087904031D7F2F802F412F12
:102F00000130FC007C08A3070800FD008B2F013076
:102F1000F8007808FD077D0884002030831700063C
:102F20000319932F942F872F7D0884000930000602
:102F300003199B2F9C2F872FFB01FC01FA017D08B1
:102F400084002D300006031DA62FA72FB02F0130BF
:102F5000F8007808FA070130F8007808FD07DE2F3E
:102F60007D0884002B300006031DB72FB82FDE2FFD
:102F70000130F8007808FD07DE2F7D0884007C080A
:102F8000F1007B08F0000A30F2000030F3000A166E
:102F90008A112E240A168A11831700087007F80078
:102FA0000030031801307107F9007808D03EFB00AB
:102FB00079080318013EFF3EFC00B82F7D0884000D
:102FC00000080A168A11DD230A168A110318E92F50
:102FD000EA2FBD2F7A080319EE2FEF2FFB2F7B0965
:102FE000F8007C09F900F80A0319F90A7808F600D4
:102FF0007908F700FF2F7C08F7007B08F60008002F
:08400000FF3FFF3FFF3FFF3FC0
:04400E00D420FF3F7C
:00000001FF
